:100000000C945D000C9485000C9485000C94850084
:100010000C9485000C9485000C9485000C9485004C
:100020000C9485000C9485000C9485000C9485003C
:100030000C9485000C9485000C9485000C9485002C
:100040000C9494010C9485000C9404020C94DE0131
:100050000C9485000C9485000C9485000C9485000C
:100060000C9485000C9485000000000024002700FB
:100070002A0000000000250028002B0004040404CE
:100080000404040402020202020203030303030342
:10009000010204081020408001020408102001021F
:1000A00004081020000000080002010000030407FB
:1000B0000000000000000000360211241FBECFEF38
:1000C000D8E0DEBFCDBF11E0A0E0B1E0E2E1F7E0B3
:1000D00002C005900D92A431B107D9F721E0A4E147
:1000E000B1E001C01D92AE3BB207E1F710E0CDE5F3
:1000F000D0E004C02197FE010E948103CC35D107D6
:10010000C9F70E9463020C9487030C940000AF921D
:10011000BF92CF92DF92EF92FF920F931F93CF93F4
:10012000DF936C017B018B01040F151FEB015E0156
:10013000AE18BF08C017D10759F06991D601ED91EB
:10014000FC910190F081E02DC6010995892B79F78A
:10015000C501DF91CF911F910F91FF90EF90DF903C
:10016000CF90BF90AF900895FC01538D448D252F03
:1001700030E0842F90E0821B930B541710F0CF9641
:10018000089501970895FC01918D828D981761F073
:10019000A28DAE0FBF2FB11D5D968C91928D9F5F8A
:1001A0009F73928F90E008958FEF9FEF0895FC0169
:1001B000918D828D981731F0828DE80FF11D858D1C
:1001C00090E008958FEF9FEF0895FC01918D228DAF
:1001D000892F90E0805C9F4F821B91098F73992734
:1001E00008958DE191E00E94E50021E0892B09F45A
:1001F00020E0822F089580E090E0892B29F00E9472
:10020000F10081110C9400000895FC01A48DA80F49
:10021000B92FB11DA35ABF4F2C91848D90E0019648
:100220008F739927848FA689B7892C93A089B18968
:100230008C91837080648C93938D848D981306C009
:100240000288F389E02D80818F7D80830895EF926D
:10025000FF920F931F93CF93DF93EC0181E0888F80
:100260009B8D8C8D98131AC0E889F989808185FF50
:1002700015C09FB7F894EE89FF896083E889F989F2
:1002800080818370806480839FBF81E090E0DF91F4
:10029000CF911F910F91FF90EF900895F62E0B8D47
:1002A00010E00F5F1F4F0F731127E02E8C8D8E1102
:1002B0000CC00FB607FCFACFE889F989808185FF69
:1002C000F5CFCE010E940501F1CFEB8DEC0FFD2F94
:1002D000F11DE35AFF4FF0829FB7F8940B8FEA8924
:1002E000FB8980818062CFCFCF93DF93EC01888D33
:1002F0008823B9F0AA89BB89E889F9898C9185FDA1
:1003000003C0808186FD0DC00FB607FCF7CF8C912E
:1003100085FFF2CF808185FFEDCFCE010E940501E0
:10032000E9CFDF91CF9108951F920F920FB60F92F0
:1003300011242F933F938F939F93AF93BF938091FB
:10034000190190911A01A0911B01B0911C013091EB
:10035000180123E0230F2D3758F50196A11DB11D7B
:10036000209318018093190190931A01A0931B0107
:10037000B0931C018091140190911501A091160178
:10038000B09117010196A11DB11D809314019093A6
:100390001501A0931601B0931701BF91AF919F91E2
:1003A0008F913F912F910F900FBE0F901F90189536
:1003B00026E8230F0296A11DB11DD2CF1F920F92E6
:1003C0000FB60F9211242F933F934F935F936F9328
:1003D0007F938F939F93AF93BF93EF93FF938DE1A1
:1003E00091E00E940501FF91EF91BF91AF919F9124
:1003F0008F917F916F915F914F913F912F910F90CE
:100400000FBE0F901F9018951F920F920FB60F926C
:1004100011242F938F939F93EF93FF93E0912D01DE
:10042000F0912E018081E0913301F091340182FD41
:100430001BC09081809136018F5F8F7320913701AF
:10044000821741F0E0913601F0E0E35EFE4F958FB8
:1004500080933601FF91EF919F918F912F910F9093
:100460000FBE0F901F9018958081F4CFEDE1F1E061
:100470001382128288EE93E0A0E0B0E0848395833B
:10048000A683B78385E091E09183808385EC90E03B
:100490009587848784EC90E09787868780EC90E04E
:1004A000918B808B81EC90E0938B828B82EC90E03F
:1004B000958B848B86EC90E0978B868B118E128EB9
:1004C000138E148E0895789484B5826084BD84B5AB
:1004D000816084BD85B5826085BD85B5816085BD3F
:1004E00080916E00816080936E00109281008091F7
:1004F000810082608093810080918100816080937F
:100500008100809180008160809380008091B100A3
:1005100084608093B1008091B00081608093B000CE
:1005200080917A00846080937A0080917A00826062
:1005300080937A0080917A00816080937A00809124
:100540007A00806880937A001092C10080E895E27A
:10055000A0E0B0E08093BA019093BB01A093BC01EE
:10056000B093BD01E0912D01F0912E0182E08083D6
:10057000E0912901F0912A011082E0912B01F09184
:100580002C018FEC808310923501E0913101F091C4
:10059000320186E08083E0912F01F091300180816B
:1005A00080618083E0912F01F0913001808188602B
:1005B0008083E0912F01F0913001808180688083F9
:1005C000E0912F01F091300180818F7D8083CDE912
:1005D000D0E0FE01249109E810E0F801849188231D
:1005E00099F090E0880F991FFC01E859FF4FA59101
:1005F000B491FC01EE58FF4F859194918FB7F89418
:100600009C91292B2C938FBF21EBE22E20E0F22E20
:1006100030E0C32E30E0D32EBB24B3948DE191E0C3
:100620000E94E500892B61F08DE191E00E94C300FA
:10063000833009F037C064E08DE191E00E9427012A
:1006400020910001F7019491FE018491F801349109
:100650003323E1F0992349F09330C9F170F59130DB
:1006600009F43BC0923009F43CC0E32FF0E0EE0FF8
:10067000FF1FEE58FF4FA591B4919FB7F894211139
:100680003DC02C91809582238C939FBFC114D104CF
:1006900009F4C4CF0E94F100882309F4BFCF0E945F
:1006A0000000BCCF823019F4B0920001C9CF813074
:1006B00009F0C6CF10920001C3CF9730A9F098304F
:1006C000C9F0943091F6909180009F7D03C0909185
:1006D00080009F7790938000C8CF94B59F7794BD9A
:1006E000C4CF94B59F7DFBCF9091B0009F7790933E
:1006F000B000BBCF9091B0009F7DF9CF2C91822BA1
:10070000C3CFEE0FFF1F0590F491E02D0994F894EC
:02071000FFCF19
:10071200010000000027018700B4007401E500C356
:0407220000D70000FC
:00000001FF
