:100000000C9462000C948A000C948A000C948A0070
:100010000C948A000C948A000C948A000C948A0038
:100020000C948A000C948A000C948A000C948A0028
:100030000C948A000C948A000C948A000C948A0018
:100040000C94AB020C948A000C941B030C94F502E4
:100050000C948A000C948A000C948A000C948A00F8
:100060000C948A000C948A000000000024002700F1
:100070002A0000000000250028002B0000000000DE
:1000800023002600290004040404040404040202DA
:100090000202020203030303030301020408102007
:1000A0004080010204081020010204081020000012
:1000B0000008000201000003040700000000000027
:1000C00000004D0311241FBECFEFD8E0DEBFCDBF2F
:1000D00011E0A0E0B1E0E6EDF9E002C005900D927C
:1000E000A231B107D9F722E0A2E1B1E001C01D922F
:1000F000A23CB207E1F710E0C2E6D0E004C02197CD
:10010000FE010E94E304C136D107C9F70E947A03B9
:100110000C94E9040C940000833081F028F48130C1
:1001200099F08230A9F008958730A9F08830C9F09D
:100130008430B1F4809180008F7D03C08091800075
:100140008F7780938000089584B58F7784BD08955C
:1001500084B58F7DFBCF8091B0008F778093B00006
:1001600008958091B0008F7DF9CFCF93DF93E0EBBE
:10017000F0E08491ECE9F0E0D491E8E8F0E0C4919B
:10018000CC23A1F081110E948C00EC2FF0E0EE0F47
:10019000FF1FE458FF4FA591B491EC91ED2381E04E
:1001A00090E009F480E0DF91CF91089580E090E045
:1001B000FACF1F93CF93DF93282F30E0F901E25558
:1001C000FF4F8491F901E656FF4FD491F901EA57A8
:1001D000FF4FC491CC23A9F0162F81110E948C00EF
:1001E000EC2FF0E0EE0FFF1FEE58FF4FA591B491FA
:1001F0008FB7F894EC91111108C0D095DE23DC93F1
:100200008FBFDF91CF911F910895DE2BF8CFCF9351
:10021000DF9390E0FC01E656FF4F24918A579F4FF1
:10022000FC0184918823D1F090E0880F991FFC0194
:10023000E859FF4FA591B491FC01EE58FF4FC591CD
:10024000D491623071F49FB7F8943C91822F8095DD
:1002500083238C93E8812E2B28839FBFDF91CF913E
:1002600008958FB7F894EC912E2B2C938FBFF6CF77
:100270003FB7F89480911D0290911E02A0911F0239
:10028000B091200226B5A89B05C02F3F19F001961A
:10029000A11DB11D3FBFBA2FA92F982F8827BC01E0
:1002A000CD01620F711D811D911D42E0660F771F08
:1002B000881F991F4A95D1F708958F929F92AF9208
:1002C000BF92CF92DF92EF92FF920E9438014B01D2
:1002D0005C0184E6C82ED12CE12CF12C0E9438015F
:1002E000681979098A099B09683E7340810591055F
:1002F000A8F321E0C21AD108E108F10888EE880EBF
:1003000083E0981EA11CB11CC114D104E104F104C6
:1003100029F7FF90EF90DF90CF90BF90AF909F9024
:100320008F9008952FB7F8946091190270911A0276
:1003300080911B0290911C022FBF0895AF92BF9233
:10034000CF92DF92EF92FF920F931F93CF93DF93A1
:100350006C017B018B01040F151FEB015E01AE18D0
:10036000BF08C017D10759F06991D601ED91FC91F2
:100370000190F081E02DC6010995892B79F7C5011F
:10038000DF91CF911F910F91FF90EF90DF90CF9071
:10039000BF90AF900895FC01538D448D252F30E020
:1003A000842F90E0821B930B541710F0CF96089582
:1003B00001970895FC01918D828D981761F0A28DAF
:1003C000AE0FBF2FB11D5D968C91928D9F5F9F7375
:1003D000928F90E008958FEF9FEF0895FC01918D2B
:1003E000828D981731F0828DE80FF11D858D90E098
:1003F00008958FEF9FEF0895FC01918D228D892F35
:1004000090E0805C9F4F821B91098F73992708951C
:1004100081E292E00E94FC0121E0892B09F420E0B6
:10042000822F089580E090E0892B29F00E94080235
:1004300081110C9400000895FC01A48DA80FB92F20
:10044000B11DA35ABF4F2C91848D90E001968F73FC
:100450009927848FA689B7892C93A089B1898C911B
:10046000837080648C93938D848D981306C002886A
:10047000F389E02D80818F7D80830895EF92FF9234
:100480000F931F93CF93DF93EC0181E0888F9B8DB7
:100490008C8D98131AC0E889F989808185FF15C071
:1004A0009FB7F894EE89FF896083E889F989808194
:1004B0008370806480839FBF81E090E0DF91CF9163
:1004C0001F910F91FF90EF900895F62E0B8D10E085
:1004D0000F5F1F4F0F731127E02E8C8D8E110CC0F4
:1004E0000FB607FCFACFE889F989808185FFF5CF3F
:1004F000CE010E941C02F1CFEB8DEC0FFD2FF11D00
:10050000E35AFF4FF0829FB7F8940B8FEA89FB897B
:1005100080818062CFCFCF93DF93EC01888D8823D9
:10052000B9F0AA89BB89E889F9898C9185FD03C056
:10053000808186FD0DC00FB607FCF7CF8C9185FF3B
:10054000F2CF808185FFEDCFCE010E941C02E9CF62
:10055000DF91CF9108951F920F920FB60F92112441
:100560002F933F938F939F93AF93BF9380911902E3
:1005700090911A02A0911B02B0911C0230911802B6
:1005800023E0230F2D3758F50196A11DB11D2093AF
:1005900018028093190290931A02A0931B02B09341
:1005A0001C0280911D0290911E02A0911F02B09129
:1005B00020020196A11DB11D80931D0290931E0281
:1005C000A0931F02B0932002BF91AF919F918F9192
:1005D0003F912F910F900FBE0F901F90189526E816
:1005E000230F0296A11DB11DD2CF1F920F920FB6FD
:1005F0000F9211242F933F934F935F936F937F93A9
:100600008F939F93AF93BF93EF93FF9381E292E019
:100610000E941C02FF91EF91BF91AF919F918F912A
:100620007F916F915F914F913F912F910F900FBEEE
:100630000F901F9018951F920F920FB60F921124D2
:100640002F938F939F93EF93FF93E0913102F0915B
:1006500032028081E0913702F091380282FD1BC0A6
:10066000908180913A028F5F8F7320913B028217B5
:1006700041F0E0913A02F0E0EF5DFD4F958F8093FD
:100680003A02FF91EF919F918F912F910F900FBEA2
:100690000F901F9018958081F4CFE1E2F2E0138271
:1006A000128288EE93E0A0E0B0E084839583A68375
:1006B000B78384E091E09183808385EC90E0958717
:1006C000848784EC90E09787868780EC90E0918B1C
:1006D000808B81EC90E0938B828B82EC90E0958B09
:1006E000848B86EC90E0978B868B118E128E138E06
:1006F000148E0895CF93DF9300D000D0CDB7DEB72E
:10070000789484B5826084BD84B5816084BD85B5EC
:10071000826085BD85B5816085BD80916E008160F8
:1007200080936E001092810080918100826080939E
:1007300081008091810081608093810080918000A0
:100740008160809380008091B10084608093B100CB
:100750008091B00081608093B00080917A008460C5
:1007600080937A0080917A00826080937A008091F1
:100770007A00816080937A0080917A00806880930B
:100780007A001092C10062E082E00E94070161E0FD
:1007900084E00E94070160E084E00E94D90061E0EB
:1007A00087E00E94070160E087E00E94D90080E8AE
:1007B00095E2A0E0B0E08093BE029093BF02A093C8
:1007C000C002B093C102E0913102F091320282E0A6
:1007D0008083E0912D02F0912E021082E0912F0291
:1007E000F09130028FEC808310923902E091350253
:1007F000F091360286E08083E0913302F09134027A
:10080000808180618083E0913302F09134028081A5
:1008100088608083E0913302F091340280818068A7
:100820008083E0913302F091340280818F7D808358
:1008300081E089831A8242E050E0BE016F5F7F4F02
:1008400081E292E00E949E010E9492016B017C0174
:1008500022E1A22E21E0B22E10E000E081E292E03F
:100860000E94FC01181619067CF4011581E0180796
:1008700009F484C081E292E00E94DA010F5F1F4F09
:10088000F50181935F01EACF0115110509F06DC0F3
:100890000E9492016C197D098E099F0966307105CD
:1008A0008105910508F46DC00E9492016C197D09C3
:1008B0008E099F09663071058105910508F0BBCF4F
:1008C00080E0E82E80E0F82E01E092E0D92E0E9430
:1008D000B50011E0892B09F410E080911702181778
:1008E00051F00E949201609313027093140280935E
:1008F0001502909316020E9492018090130290902C
:100900001402A0901502B0901602681979098A099C
:100910009B09633371058105910548F080911202AE
:10092000811310931202809112028093170280911A
:10093000120281113CC060E084E00E94D90060E0B6
:1009400087E00E94D9000B830C8342E050E0BE0197
:100950006D5F7F4F81E292E00E949E010E94B50090
:10096000892B91F40E945D01F9CF0115F1E01F0779
:1009700029F0F801EE5EFE4F108296CF1092110220
:1009800093CF0E945D0164CF61E084E00E94D900B2
:1009900061E087E00E94D9000983DA8242E050E0FA
:1009A000BE016F5F7F4F81E292E00E949E01E114E1
:1009B000F10409F48CCF0E940802882309F487CF40
:1009C0000E94000084CFEE0FFF1F0590F491E02DF0
:0609D0000994F894FFCF2A
:1009D600000000003E029E01CB018B02FC01DA0101
:0209E600EE0120
:00000001FF
