:100000000C9462000C948A000C948A000C948A0070
:100010000C948A000C948A000C948A000C948A0038
:100020000C948A000C948A000C948A000C948A0028
:100030000C948A000C948A000C948A000C948A0018
:100040000C942D020C948A000C949D020C9477025F
:100050000C948A000C948A000C948A000C948A00F8
:100060000C948A000C948A000000000023002600F3
:10007000290000000000240027002A0000000000E2
:10008000250028002B0004040404040404040202D4
:100090000202020203030303030301020408102007
:1000A0004080010204081020010204081020000012
:1000B0000008000201000003040700000000000027
:1000C0000000CF0211241FBECFEFD8E0DEBFCDBFAE
:1000D00011E0A0E0B1E0EAE5F9E002C005900D9280
:1000E000A231B107D9F721E0A2E1B1E001C01D9230
:1000F000AC3CB207E1F710E0C2E6D0E004C02197C3
:10010000FE010E94A504C136D107C9F70E94FC0276
:100110000C94AB040C940000833081F028F48130FF
:1001200099F08230A9F008958730A9F08830C9F09D
:100130008430B1F4809180008F7D03C08091800075
:100140008F7780938000089584B58F7784BD08955C
:1001500084B58F7DFBCF8091B0008F778093B00006
:1001600008958091B0008F7DF9CF1F93CF93DF93D7
:10017000282F30E0F901E255FF4F8491F901E6564E
:10018000FF4FD491F901EA57FF4FC491CC23A9F056
:10019000162F81110E948C00EC2FF0E0EE0FFF1F54
:1001A000E458FF4FA591B4918FB7F894EC911111D9
:1001B00008C0D095DE23DC938FBFDF91CF911F91D4
:1001C0000895DE2BF8CFCF93DF9390E0FC01E65645
:1001D000FF4F24918A579F4FFC0184918823D1F0CF
:1001E00090E0880F991FFC01EE58FF4FA591B49144
:1001F000FC01E458FF4FC591D491623071F49FB770
:10020000F8943C91822F809583238C93E8812E2B48
:1002100028839FBFDF91CF9108958FB7F894EC9119
:100220002E2B2C938FBFF6CF2FB7F8946091270118
:10023000709128018091290190912A012FBF089582
:10024000AF92BF92CF92DF92EF92FF920F931F93E4
:10025000CF93DF936C017B018B01040F151FEB0122
:100260005E01AE18BF08C017D10759F06991D601D9
:10027000ED91FC910190F081E02DC6010995892B4B
:1002800079F7C501DF91CF911F910F91FF90EF900A
:10029000DF90CF90BF90AF900895FC01538D448DB7
:1002A000252F30E0842F90E0821B930B541710F021
:1002B000CF96089501970895FC01918D828D98172E
:1002C00061F0A28DAE0FBF2FB11D5D968C91928D06
:1002D0009F5F9F73928F90E008958FEF9FEF089537
:1002E000FC01918D828D981731F0828DE80FF11D00
:1002F000858D90E008958FEF9FEF0895FC01918D1B
:10030000228D892F90E0805C9F4F821B91098F7313
:10031000992708958BE291E00E947E0121E0892BCC
:1003200009F420E0822F089580E090E0892B29F0E5
:100330000E948A0181110C9400000895FC01A48D93
:10034000A80FB92FB11DA35ABF4F2C91848D90E0F7
:1003500001968F739927848FA689B7892C93A089DA
:10036000B1898C91837080648C93938D848D981364
:1003700006C00288F389E02D80818F7D80830895F7
:10038000EF92FF920F931F93CF93DF93EC0181E0E5
:10039000888F9B8D8C8D98131AC0E889F98980818C
:1003A00085FF15C09FB7F894EE89FF896083E889BF
:1003B000F98980818370806480839FBF81E090E0B1
:1003C000DF91CF911F910F91FF90EF900895F62E3E
:1003D0000B8D10E00F5F1F4F0F731127E02E8C8DD8
:1003E0008E110CC00FB607FCFACFE889F98980811D
:1003F00085FFF5CFCE010E949E01F1CFEB8DEC0F72
:10040000FD2FF11DE35AFF4FF0829FB7F8940B8F39
:10041000EA89FB8980818062CFCFCF93DF93EC01A3
:10042000888D8823B9F0AA89BB89E889F9898C91DC
:1004300085FD03C0808186FD0DC00FB607FCF7CF98
:100440008C9185FFF2CF808185FFEDCFCE010E9498
:100450009E01E9CFDF91CF9108951F920F920FB6C1
:100460000F9211242F933F938F939F93AF93BF933A
:100470008091270190912801A0912901B0912A0132
:100480003091260123E0230F2D3758F50196A11D49
:10049000B11D209326018093270190932801A093FA
:1004A0002901B0932A018091220190912301A0910A
:1004B0002401B09125010196A11DB11D8093220157
:1004C00090932301A0932401B0932501BF91AF9194
:1004D0009F918F913F912F910F900FBE0F901F9082
:1004E000189526E8230F0296A11DB11DD2CF1F92A9
:1004F0000F920FB60F9211242F933F934F935F9358
:100500006F937F938F939F93AF93BF93EF93FF93DB
:100510008BE291E00E949E01FF91EF91BF91AF911C
:100520009F918F917F916F915F914F913F912F910B
:100530000F900FBE0F901F9018951F920F920FB63D
:100540000F9211242F938F939F93EF93FF93E0913A
:100550003B01F0913C018081E0914101F091420129
:1005600082FD1BC09081809144018F5F8F73209129
:100570004501821741F0E0914401F0E0E55DFE4F56
:10058000958F80934401FF91EF919F918F912F91CF
:100590000F900FBE0F901F9018958081F4CFEBE263
:1005A000F1E01382128288EE93E0A0E0B0E0848351
:1005B0009583A683B78384E091E09183808385EC63
:1005C00090E09587848784EC90E09787868780EC1D
:1005D00090E0918B808B81EC90E0938B828B82EC0E
:1005E00090E0958B848B86EC90E0978B868B118EB8
:1005F000128E138E148E0895789484B5826084BD13
:1006000084B5816084BD85B5826085BD85B5816016
:1006100085BD80916E00816080936E001092810094
:10062000809181008260809381008091810081604F
:100630008093810080918000816080938000809110
:10064000B10084608093B1008091B000816080939C
:10065000B00080917A00846080937A0080917A0063
:10066000826080937A0080917A00816080937A0022
:1006700080917A00806880937A001092C10080E8AF
:1006800095E2A0E0B0E08093C8019093C901A093E7
:10069000CA01B093CB01E0913B01F0913C0182E0B3
:1006A0008083E0913701F09138011082E0913901A7
:1006B000F0913A018FEC808310924301E0913F0169
:1006C000F091400186E08083E0913D01F0913E0190
:1006D000808180618083E0913D01F0913E018081C5
:1006E00088608083E0913D01F0913E0180818068C7
:1006F0008083E0913D01F0913E0180818F7D808378
:1007000062E082E00E94E30061E084E00E94E30096
:1007100061E087E00E94E30060E084E00E94B500B1
:1007200060E087E00E94B50063E08BE291E00E9408
:10073000C0010E9414016B017C01C0921401D0928F
:100740001501E0921601F09217018BE291E00E94F0
:100750007E01892B09F0DCC00E9414016C197D090F
:100760008E099F096D3271408105910570F30E94D9
:1007700014016C197D09709313016093120167399C
:10078000710594F6C0EBD0E00CE910E098E8E92E92
:1007900090E0F92E20E0C22E20E0D22EFE018491BE
:1007A000F801A490F701B490BB2089F081110E9458
:1007B0008C00EB2DF0E0EE0FFF1FE859FF4FA591E5
:1007C000B4918C91A822BB24B394A11001C0B12C88
:1007D000FB2DF170BF2E80912101F81761F0F0938D
:1007E00021010E94140160931D0170931E018093EA
:1007F0001F01909320010E94140140901D01509010
:100800001E0160901F01709020016419750986090E
:100810009709633371058105910510F0B0921C01B1
:100820008BE291E00E947E0180901401909015016E
:10083000A0901601B0901701892BB1F08BE291E0E6
:100840000E945C01843081F40E94140160931801BD
:100850007093190180931A0190931B01681979090B
:10086000709313016093120180911C01811158C093
:100870008091120190911301873991050CF050C0BD
:100880000E941401409018015090190160901A01C3
:1008900070901B0164197509860997096D327140C2
:1008A00081059105E8F561E084E00E94B50061E012
:1008B00087E00E94B5000E941401681979098A092D
:1008C0009B09653671058105910538F061E08BE281
:1008D00091E00E94C0010E94140161E08BE291E06E
:1008E0000E94C0010E9414016093140170931501CD
:1008F0008093160190931701C114D10409F44ECFCF
:100900000E948A01882309F449CF0E94000046CF43
:100910008BE291E00E945C01843009F01DCF27CF6B
:1009200060E084E00E94B50060E087E00E94B500CE
:100930000E941401681979098A099B0965367105B5
:1009400081059105C8F262E0C9CFEE0FFF1F059047
:0A095000F491E02D0994F894FFCF14
:10095A0000000000C00120014D010D027E015C0172
:02096A0070011A
:00000001FF
