:100000000C9462000C948A000C948A000C948A0070
:100010000C948A000C948A000C948A000C948A0038
:100020000C948A000C948A000C948A000C948A0028
:100030000C948A000C948A000C948A000C948A0018
:100040000C9482020C948A000C94F2020C94CC0260
:100050000C948A000C948A000C948A000C948A00F8
:100060000C948A000C948A000000000023002600F3
:10007000290000000000240027002A0000000000E2
:10008000250028002B0004040404040404040202D4
:100090000202020203030303030301020408102007
:1000A0004080010204081020010204081020000012
:1000B0000008000201000003040700000000000027
:1000C0000000240311241FBECFEFD8E0DEBFCDBF58
:1000D00011E0A0E0B1E0E6E0FAE002C005900D9288
:1000E000A431B107D9F721E0A4E1B1E001C01D922C
:1000F000A23EB207E1F710E0C2E6D0E004C02197CB
:10010000FE010E94FB04C136D107C9F70E94860395
:100110000C9401050C940000833081F028F48130A8
:1001200099F08230A9F008958730A9F08830C9F09D
:100130008430B1F4809180008F7D03C08091800075
:100140008F7780938000089584B58F7784BD08955C
:1001500084B58F7DFBCF8091B0008F778093B00006
:1001600008958091B0008F7DF9CF1F93CF93DF93D7
:10017000282F30E0F901E255FF4F8491F901E6564E
:10018000FF4FD491F901EA57FF4FC491CC23A9F056
:10019000162F81110E948C00EC2FF0E0EE0FFF1F54
:1001A000E458FF4FA591B4918FB7F894EC911111D9
:1001B00008C0D095DE23DC938FBFDF91CF911F91D4
:1001C0000895DE2BF8CFCF93DF9390E0FC01E65645
:1001D000FF4F24918A579F4FFC0184918823D1F0CF
:1001E00090E0880F991FFC01EE58FF4FA591B49144
:1001F000FC01E458FF4FC591D491623071F49FB770
:10020000F8943C91822F809583238C93E8812E2B48
:1002100028839FBFDF91CF9108958FB7F894EC9119
:100220002E2B2C938FBFF6CF2FB7F894609125011A
:100230007091260180912701909128012FBF089588
:10024000AF92BF92CF92DF92EF92FF920F931F93E4
:10025000CF93DF936C017B018B01040F151FEB0122
:100260005E01AE18BF08C017D10759F06991D601D9
:10027000ED91FC910190F081E02DC6010995892B4B
:1002800079F7C501DF91CF911F910F91FF90EF900A
:10029000DF90CF90BF90AF900895FC01538D448DB7
:1002A000252F30E0842F90E0821B930B541710F021
:1002B000CF96089501970895FC01918D828D98172E
:1002C00061F0A28DAE0FBF2FB11D5D968C91928D06
:1002D0009F5F9F73928F90E008958FEF9FEF089537
:1002E000FC01918D828D981731F0828DE80FF11D00
:1002F000858D90E008958FEF9FEF0895FC01918D1B
:10030000228D892F90E0805C9F4F821B91098F7313
:100310009927089589E291E00E947E0121E0892BCE
:1003200009F420E0822F089580E090E0892B29F0E5
:100330000E948A0181110C9400000895FC01A48D93
:10034000A80FB92FB11DA35ABF4F2C91848D90E0F7
:1003500001968F739927848FA689B7892C93A089DA
:10036000B1898C91837080648C93938D848D981364
:1003700006C00288F389E02D80818F7D80830895F7
:10038000EF92FF920F931F93CF93DF93EC0181E0E5
:10039000888F9B8D8C8D98131AC0E889F98980818C
:1003A00085FF15C09FB7F894EE89FF896083E889BF
:1003B000F98980818370806480839FBF81E090E0B1
:1003C000DF91CF911F910F91FF90EF900895F62E3E
:1003D0000B8D10E00F5F1F4F0F731127E02E8C8DD8
:1003E0008E110CC00FB607FCFACFE889F98980811D
:1003F00085FFF5CFCE010E949E01F1CFEB8DEC0F72
:10040000FD2FF11DE35AFF4FF0829FB7F8940B8F39
:10041000EA89FB8980818062CFCFCF93DF93EC01A3
:10042000888D8823B9F0AA89BB89E889F9898C91DC
:1004300085FD03C0808186FD0DC00FB607FCF7CF98
:100440008C9185FFF2CF808185FFEDCFCE010E9498
:100450009E01E9CFDF91CF910895CF92DF92EF9285
:10046000FF920F931F93CF93DF93EC012881398183
:100470003327F901E255FF4F8491F901E656FF4F0A
:100480000491F901EA57FF4F1491112379F081117A
:100490000E948C00E12FF0E0EE0FFF1FE859FF4FA4
:1004A000A591B491EC910E2311E009F410E01170C4
:1004B0008A81811731F00E9414016C837D838E83C1
:1004C0009F830E941401CC80DD80EE80FF806C1938
:1004D0007D098E099F09C884D984EA84FB84C616E5
:1004E000D706E806F90618F48B8181131B831A835B
:1004F0008B81DF91CF911F910F91FF90EF90DF9053
:10050000CF9008951F920F920FB60F9211242F9340
:100510003F938F939F93AF93BF93809125019091C9
:100520002601A0912701B09128013091240123E0F8
:10053000230F2D3758F50196A11DB11D20932401DD
:100540008093250190932601A0932701B093280161
:100550008091200190912101A0912201B09123016D
:100560000196A11DB11D8093200190932101A093BC
:100570002201B0932301BF91AF919F918F913F9141
:100580002F910F900FBE0F901F90189526E8230F04
:100590000296A11DB11DD2CF1F920F920FB60F92DE
:1005A00011242F933F934F935F936F937F938F9378
:1005B0009F93AF93BF93EF93FF9389E291E00E94E3
:1005C0009E01FF91EF91BF91AF919F918F917F918C
:1005D0006F915F914F913F912F910F900FBE0F90B0
:1005E0001F9018951F920F920FB60F9211242F9300
:1005F0008F939F93EF93FF93E0913901F0913A012C
:100600008081E0913F01F091400182FD1BC090810B
:10061000809142018F5F8F7320914301821741F0D7
:10062000E0914201F0E0E75DFE4F958F809342013B
:10063000FF91EF919F918F912F910F900FBE0F908F
:100640001F9018958081F4CFCF92DF92EF92FF92A6
:10065000CF93E9E2F1E01382128288EE93E0A0E00A
:10066000B0E084839583A683B78385E091E091838E
:10067000808385EC90E09587848784EC90E0978771
:10068000868780EC90E0918B808B81EC90E0938B5F
:10069000828B82EC90E0958B848B86EC90E0978B3C
:1006A000868B118E128E138E148EE2EDF1E0C1E076
:1006B000C283C383148215821682178282E3C82EF6
:1006C000D12CE12CF12CC086D186E286F38682E023
:1006D00090E09183808362E00E94E300E6ECF1E029
:1006E000C283C3831482158216821782C086D18684
:1006F000E286F38688E090E09183808362E0CF9188
:10070000FF90EF90DF90CF900C94E300789484B545
:10071000826084BD84B5816084BD85B5826085BDFD
:1007200085B5816085BD80916E00816080936E008B
:10073000109281008091810082608093810080917D
:10074000810081608093810080918000816080932E
:1007500080008091B10084608093B1008091B000EE
:1007600081608093B00080917A00846080937A00E9
:1007700080917A00826080937A0080917A00816013
:1007800080937A0080917A00806880937A0010923A
:10079000C10080E895E2A0E0B0E08093DE01909394
:1007A000DF01A093E001B093E101E0913901F09104
:1007B0003A0182E08083E0913501F09136011082A8
:1007C000E0913701F09138018FEC80831092410164
:1007D000E0913D01F0913E0186E08083E0913B0194
:1007E000F0913C01808180618083E0913B01F09138
:1007F0003C01808188608083E0913B01F0913C0165
:10080000808180688083E0913B01F0913C01808190
:100810008F7D808361E084E00E94E30061E087E0F7
:100820000E94E30060E084E00E94B50060E087E0A1
:100830000E94B50063E089E291E00E94C0010E943D
:1008400014016B017C01C0921601D0921701E09255
:100850001801F092190189E291E00E947E01892B32
:1008600009F06BC00E9414016C197D098E099F0963
:10087000693771058105910570F30E9414016C19A7
:100880007D0970931501609314016630710594F62B
:1008900011E0C0E0D0E082ED91E00E942D02082F2F
:1008A00080931F0186EC91E00E942D02909100013F
:1008B000992319F0882309F448C08093000189E244
:1008C00091E00E947E01C0901601D0901701E09047
:1008D0001801F0901901892BB1F089E291E00E9492
:1008E0005C01843081F40E94140160931A017093BA
:1008F0001B0180931C0190931D016C197D0970935D
:10090000150160931401002351F160E084E00E941E
:10091000B50060E087E00E94B50010921E010E94C1
:1009200014016C197D098E099F09653671058105D1
:10093000910508F455C062E045C089E291E00E944B
:100940005C01843009F08ECF98CF10920001011124
:10095000B6CF80911E01812780931E01B0CF809178
:10096000140190911501069784F60E94140180905D
:100970001A0190901B01A0901C01B0901D016819F4
:1009800079098A099B09693771058105910508F084
:10099000BCCF80911E01882309F4B7CF61E084E0C9
:1009A0000E94B50061E087E00E94B5000E9414013A
:1009B0006C197D098E099F096436710581059105C1
:1009C00078F061E089E291E00E94C0010E94140188
:1009D0006093160170931701809318019093190189
:1009E000209709F458CF0E948A01882309F453CF35
:1009F0000E94000050CFEE0FFF1F0590F491E02DF4
:060A00000994F894FFCFF9
:100A06000100000000C00120014D010D027E015CC5
:040A1600017001006A
:00000001FF
